:020000040800F2
:10000000000002203D170008CD120008D51200089C
:10001000DD120008E5120008ED12000800000000E3
:10002000000000000000000000000000F5120008C1
:100030000313000800000000111300081F1300083C
:100040008D1700088D1700088D1700088D17000800
:100050008D1700088D1700088D1700088D170008F0
:100060008D1700088D1700088D1700088D170008E0
:100070008D1700088D1700088D1700088D170008D0
:100080008D1700088D1700088D1700088D170008C0
:100090008D1700088D1700088D1700088D170008B0
:1000A0008D1700088D1700088D1700088D170008A0
:1000B0008D1700088D1700088D1700088D17000890
:1000C0008D1700088D1700088D1700088D17000880
:1000D0008D1700082D1300088D1700088D170008D4
:1000E0008D1700088D1700088D1700088D17000860
:1000F0008D1700088D1700088D1700088D17000850
:100100008D1700088D1700088D1700088D1700083F
:100110008D1700088D1700088D1700088D1700082F
:100120008D1700088D170008411300088D1700086F
:100130008D1700088D1700088D1700088D1700080F
:100140008D1700088D1700088D1700088D170008FF
:100150008D1700088D1700088D1700088D170008EF
:100160008D1700088D1700088D1700088D170008DF
:100170008D1700088D1700088D170008000000007B
:080180008D1700088D1700081F
:1001900010B5054C237833B9044B13B10448AFF3C1
:1001A00000800123237010BDD80100200000000052
:1001B000149D000808B5034B1BB103490348AFF376
:1001C000008008BD00000000DC010020149D000834
:1001D00001F0FF01102A2BDB10F0070F08D010F8F8
:1001E000013B013A8B422DD010F0070F42B3F6D1FC
:1001F000F0B441EA012141EA014122F007047FF015
:1002000000070023F0E80256083C85EA010586EA6B
:10021000010685FA47F5A3FA87F586FA47F6A5FAA7
:1002200087F68EB9EED1F0BC01F0FF0102F00702B3
:1002300032B110F8013B013A83EA010313B1F8D15E
:100240000020704701387047002D06BF354603383F
:10025000073815F0010F07D1013015F4807F02BF78
:10026000013015F4C03F0130F0BC0138704700BFC9
:10027000034613F8012B002AFBD1181A01387047E6
:1002800081F0004102E000BF83F0004330B54FEA47
:1002900041044FEA430594EA050F08BF90EA020FB4
:1002A0001FBF54EA000C55EA020C7FEA645C7FEA47
:1002B000655C00F0E2804FEA5454D4EB5555B8BF6A
:1002C0006D420CDD2C4480EA020281EA030382EADB
:1002D000000083EA010180EA020281EA0303362D6D
:1002E00088BF30BD11F0004F4FEA01314FF4801C40
:1002F0004CEA113102D0404261EB410113F0004F52
:100300004FEA03334CEA133302D0524263EB430308
:1003100094EA050F00F0A780A4F10104D5F1200EA6
:100320000DDB02FA0EFC22FA05F2801841F1000101
:1003300003FA0EF2801843FA05F359410EE0A5F1D5
:1003400020050EF1200E012A03FA0EFC28BF4CF006
:10035000020C43FA05F3C01851EBE37101F00045BC
:1003600007D54FF0000EDCF1000C7EEB00006EEBC9
:100370000101B1F5801F1BD3B1F5001F0CD3490853
:100380005FEA30004FEA3C0C04F101044FEA4452AA
:1003900012F5800F80F09A80BCF1004F08BF5FEA31
:1003A000500C50F1000041EB045141EA050130BD11
:1003B0005FEA4C0C404141EB0101013C28BFB1F523
:1003C000801FE9D291F0000F04BF01460020B1FA6E
:1003D00081F308BF2033A3F10B03B3F120020CDA41
:1003E0000C3208DD02F1140CC2F10C0201FA0CF01F
:1003F00021FA02F10CE002F11402D8BFC2F1200C84
:1004000001FA02F120FA0CFCDCBF41EA0C01904039
:10041000E41AA2BF01EB0451294330BD6FEA040482
:100420001F3C1CDA0C340EDC04F11404C4F120026D
:1004300020FA04F001FA02F340EA030021FA04F37F
:1004400045EA030130BDC4F10C04C4F1200220FAD6
:1004500002F001FA04F340EA0300294630BD21FA14
:1004600004F0294630BD94F0000F83F4801306BFDA
:1004700081F480110134013D4EE77FEA645C18BFCE
:100480007FEA655C29D094EA050F08BF90EA020F65
:1004900005D054EA000C04BF1946104630BD91EA5D
:1004A000030F1EBF0021002030BD5FEA545C05D160
:1004B0004000494128BF41F0004130BD14F580049F
:1004C0003CBF01F5801130BD01F0004545F0FE4113
:1004D00041F470014FF0000030BD7FEA645C1ABF48
:1004E000194610467FEA655C1CBF0B46024650EA7F
:1004F000013406BF52EA033591EA030F41F40021AB
:1005000030BD00BF90F0000F04BF0021704730B530
:100510004FF4806404F132044FF000054FF0000105
:1005200050E700BF90F0000F04BF0021704730B5C6
:100530004FF4806404F1320410F0004548BF40429B
:100540004FF000013EE700BF42004FEAE2014FEAF0
:1005500031014FEA02701FBF12F07F4393F07F4FCB
:1005600081F06051704732F07F4208BF704793F0CE
:100570007F4F04BF41F40021704730B54FF46074E1
:1005800001F0004521F000411CE700BF50EA0102E4
:1005900008BF704730B54FF000050AE050EA01028D
:1005A00008BF704730B511F0004502D5404261EBFD
:1005B00041014FF4806404F132045FEA915C3FF43E
:1005C000D8AE4FF003025FEADC0C18BF03325FEADB
:1005D000DC0C18BF033202EBDC02C2F1200300FA8C
:1005E00003FC20FA02F001FA03FE40EA0E0021FAB1
:1005F00002F11444BDE600BF70B54FF0FF0C4CF49F
:10060000E06C1CEA11541DBF1CEA135594EA0C0F50
:1006100095EA0C0F00F0DEF82C4481EA030621EA8B
:100620004C5123EA4C5350EA013518BF52EA0335C6
:1006300041F4801143F4801338D0A0FB02CE4FF078
:100640000005E1FB02E506F00042E0FB03E54FF0A8
:100650000006E1FB03569CF0000F18BF4EF0010EA0
:10066000A4F1FF04B6F5007F64F5407404D25FEA9C
:100670004E0E6D4146EB060642EAC62141EA55514F
:100680004FEAC52040EA5E504FEACE2EB4F1FD0C91
:1006900088BFBCF5E06F1ED8BEF1004F08BF5FEA0F
:1006A000500E50F1000041EB045170BD06F00046C1
:1006B00046EA010140EA020081EA0301B4EB5C046E
:1006C000C2BFD4EB0C0541EA045170BD41F4801166
:1006D0004FF0000E013C00F3AB8014F1360FDEBF8B
:1006E000002001F0004170BDC4F10004203C35DA67
:1006F0000C341BDC04F11404C4F1200500FA05F3EA
:1007000020FA04F001FA05F240EA020001F000428A
:1007100021F0004110EBD37021FA04F642EB060100
:100720005EEA430E08BF20EAD37070BDC4F10C042A
:10073000C4F1200500FA04F320FA05F001FA04F2EE
:1007400040EA020001F0004110EBD37041F10001DA
:100750005EEA430E08BF20EAD37070BDC4F12005E5
:1007600000FA05F24EEA020E20FA04F301FA05F24D
:1007700043EA020321FA04F001F0004121FA04F2F5
:1007800020EA020000EBD3705EEA430E08BF20EAC5
:10079000D37070BD94F0000F0FD101F000464000FF
:1007A00041EB010111F4801F08BF013CF7D041EA81
:1007B000060195F0000F18BF704703F00046520085
:1007C00043EB030313F4801F08BF013DF7D043EA56
:1007D0000603704794EA0C0F0CEA135518BF95EA0C
:1007E0000C0F0CD050EA410618BF52EA4306D1D193
:1007F00081EA030101F000414FF0000070BD50EAB2
:10080000410606BF1046194652EA430619D094EA3B
:100810000C0F02D150EA013613D195EA0C0F05D125
:1008200052EA03361CBF104619460AD181EA030179
:1008300001F0004141F0FE4141F470014FF0000031
:1008400070BD41F0FE4141F4780170BD70B54FF0CC
:10085000FF0C4CF4E06C1CEA11541DBF1CEA13554C
:1008600094EA0C0F95EA0C0F00F0A7F8A4EB05042E
:1008700081EA030E52EA03354FEA013100F0888025
:100880004FEA03334FF0805545EA131343EA1263EE
:100890004FEA022245EA111545EA10654FEA0026A3
:1008A0000EF000419D4208BF964244F1FD0404F55C
:1008B000407402D25B084FEA3202B61A65EB0305B8
:1008C0005B084FEA32024FF480104FF4002CB6EB75
:1008D000020E75EB030E22BFB61A754640EA0C00F5
:1008E0005B084FEA3202B6EB020E75EB030E22BF35
:1008F000B61A754640EA5C005B084FEA3202B6EB76
:10090000020E75EB030E22BFB61A754640EA9C0034
:100910005B084FEA3202B6EB020E75EB030E22BF04
:10092000B61A754640EADC0055EA060E18D04FEAC2
:10093000051545EA16754FEA06164FEAC30343EA62
:1009400052734FEAC2025FEA1C1CC0D111F4801F2F
:100950000BD141EA00014FF000004FF0004CB6E728
:1009600011F4801F04BF01430020B4F1FD0C88BFC7
:10097000BCF5E06F3FF6AFAEB5EB030C04BFB6EBD2
:10098000020C5FEA500C50F1000041EB045170BDC5
:100990000EF0004E4EEA113114EB5C04C2BFD4EBF2
:1009A0000C0541EA045170BD41F480114FF0000E76
:1009B000013C90E645EA060E8DE60CEA135594EAF2
:1009C0000C0F08BF95EA0C0F3FF43BAF94EA0C0FF5
:1009D0000AD150EA01347FF434AF95EA0C0F7FF46A
:1009E00025AF104619462CE795EA0C0F06D152EABE
:1009F00003353FF4FDAE1046194622E750EA4106A2
:100A000018BF52EA43067FF4C5AE50EA41047FF4B2
:100A10000DAF52EA43057FF4EBAE12E74FF0FF3C17
:100A200006E000BF4FF0010C02E000BF4FF0010CE8
:100A30004DF804CD4FEA410C7FEA6C5C4FEA430C61
:100A400018BF7FEA6C5C1BD001B050EA410C0CBFB0
:100A500052EA430C91EA030F02BF90EA020F002012
:100A6000704710F1000F91EA030F58BF994208BF79
:100A700090422CBFD8176FEAE37040F00100704736
:100A80004FEA410C7FEA6C5C02D150EA013C07D18D
:100A90004FEA430C7FEA6C5CD6D152EA033CD3D0D8
:100AA0005DF8040B704700BF8446104662468C46D2
:100AB0001946634600E000BF01B5FFF7B7FF002805
:100AC00048BF10F1000F01BD4DF808EDFFF7F4FF2E
:100AD0000CBF012000205DF808FB00BF4DF808EDB9
:100AE000FFF7EAFF34BF012000205DF808FB00BFDC
:100AF0004DF808EDFFF7E0FF94BF012000205DF8FE
:100B000008FB00BF4DF808EDFFF7CEFF94BF0120B2
:100B100000205DF808FB00BF4DF808EDFFF7C4FFAB
:100B200034BF012000205DF808FB00BF4FEA410CF4
:100B30007FEA6C5C02D150EA013C0AD14FEA430CD7
:100B40007FEA6C5C02D152EA033C02D14FF0000014
:100B500070474FF0010070474FEA410212F5001252
:100B600015D211D56FF47873B3EB625212D94FEAF4
:100B7000C12343F0004343EA505311F0004F23FADE
:100B800002F018BF404270474FF00000704750EA33
:100B9000013005D111F0004008BF6FF000407047F0
:100BA0004FF00000704700BF4A0011D212F500124A
:100BB00011D20DD56FF47873B3EB62520ED44FEAB5
:100BC000C12343F0004343EA505323FA02F0704735
:100BD0004FF00000704750EA013002D14FF0FF3073
:100BE00070474FF0000070474FEA4102B2F1E04316
:100BF00024BFB3F5001CDCF1FE5C0DD901F0004C04
:100C00004FEAC0024CEA5070B2F1004F40EB830053
:100C100008BF20F00100704711F0804F21D113F17F
:100C20003872BCBF01F00040704741F480114FEAB8
:100C30005252C2F11802C2F1200C10FA0CF320FA41
:100C400002F018BF40F001004FEAC1234FEAD3235E
:100C500003FA0CFC40EA0C0023FA02F34FEA4303C8
:100C6000CCE77FEA625307D150EA01331EBF4FF051
:100C7000FE4040F44000704701F0004040F0FE406C
:100C800040F40000704700BF53B94AB9002908BFBB
:100C900000281CBF4FF0FF314FF0FF3000F0A0B92B
:100CA000ADF1080C6DE904CE00F03CF8DDF804E08D
:100CB000DDE9022304B0704738B500220023044662
:100CC0000D46FFF70BFF28B920462946BDE83840FE
:100CD00000F00AB8204605F1004100F005F8404256
:100CE00061EB410138BD00BFD0B50C4B0022064678
:100CF0000F46FFF781FCFFF757FF0446FFF702FCA2
:100D0000074B0022FFF778FC02460B463046394677
:100D1000FFF7BAFAFFF748FF2146D0BD0000F03DCB
:100D20000000F0412DE9F047089D0C46002B4ED104
:100D300094468C458646B2FA82F262D94AB1C2F133
:100D40002003914020FA03F30CFA02FC194300FA45
:100D500002FE4FEA1C471FFA8CF6B1FBF7F44FEA8C
:100D60001E4307FB141143EA014304FB06F19942B9
:100D70000AD91CEB030304F1FF3080F01281994281
:100D800040F20F81023C6344591A1FFA8EF3B1FB03
:100D9000F7F007FB101143EA014300FB06F69E4201
:100DA0000AD91CEB030300F1FF3180F0FC809E4266
:100DB00040F2F980634402389B1B40EA0440002162
:100DC0001DB1D3400022C5E90032BDE8F0878B4257
:100DD00005D90DB1C5E9000100210846F5E7B3FAD0
:100DE00083F1002946D1A34202D39042C0F0F080A3
:100DF000861A64EB03030120002DE6D0C5E90063E9
:100E0000E3E7002A40F09080A1EB0C044FEA1C4875
:100E10001FFA8CF70121B4FBF8F64FEA1E4308FBDA
:100E2000164443EA044307FB06F0984208D91CEB3A
:100E3000030306F1FF3402D2984200F2CD80264629
:100E40001C1A1FFA8EF3B4FBF8F008FB104443EAB7
:100E5000044300FB07F79F4208D91CEB030300F192
:100E6000FF3402D29F4200F2B0802046DB1B40EAF2
:100E70000640A5E7C1F120068B4022FA06F71F4382
:100E800020FA06FC04FA01F343EA0C03F44000FAEA
:100E900001F8380C4FEA1349B4FBF0FE1FFA87FC47
:100EA00000FB1E4449EA04440EFB0CF9A14502FA7A
:100EB00001F20AD93C190EF1FF3A80F08480A14575
:100EC00040F28180AEF1020E3C44A4EB09041FFA0B
:100ED00083F9B4FBF0F300FB134449EA044403FB39
:100EE0000CFCA44507D93C1903F1FF3067D2A44597
:100EF00065D9023B3C4443EA0E40A0FB0293A4EBBD
:100F00000C049C42CE469C4651D34ED055B1B8EB12
:100F10000E0364EB0C0404FA06F6CB401E43CC40EF
:100F2000C5E90064002150E7C2F1200320FA03F173
:100F30000CFA02FC24FA03F394400C434FEA1C48D9
:100F400000FA02FE1FFA8CF7B3FBF8F008FB103131
:100F5000230C43EA014300FB07F1994208D91CEB3B
:100F6000030300F1FF362CD299422AD90238634498
:100F70005B1AA4B2B3FBF8F108FB113344EA034453
:100F800001FB07F3A34208D91CEB040401F1FF366F
:100F900013D2A34211D902396444E41A41EA004150
:100FA00039E70446F0E6084606E7C845AED2B9EB95
:100FB000020E63EB070C0138A8E73146EDE7034664
:100FC00099E73046D4E7D6467FE7634402384DE7D9
:100FD0000646234608460FE7023E634430E700BF5B
:100FE000704700BF80B582B000AF00237B600C4B20
:100FF0001B6B0B4A43F480031363094B1B6B03F415
:1010000080037B607B68002200213A2000F055FDC0
:101010003A2000F06EFD00BF0837BD4680BD00BF1E
:101020000038024080B58AB000AF07F114030022F7
:101030001A605A609A60DA601A6100233B612F4B94
:101040001B6B2E4A43F0040313632C4B1B6B03F002
:1010500004033B613B690023FB60284B1B6B274A61
:1010600043F080031363254B1B6B03F08003FB608D
:10107000FB680023BB60214B1B6B204A43F001033C
:1010800013631E4B1B6B03F00103BB60BB680023A3
:101090007B601A4B1B6B194A43F002031363174B17
:1010A0001B6B03F002037B607B6800224FF48041DE
:1010B000134801F0B9FD4FF480437B610123BB610C
:1010C0000023FB6102233B6207F1140319460C481D
:1010D00001F00EFC38237B610223BB610023FB611E
:1010E00003233B6205237B6207F11403194604487E
:1010F00001F0FEFB00BF2837BD4680BD003802402E
:101100000004024080B582B000AF00F041FB00F067
:1011100045F8FFF787FFFFF765FF00F005FA00F0DD
:101120002DFA03F01DFE184805F02AFA174805F0BD
:1011300027FA154805F024FA00F090FB786003F0D8
:10114000E3FE134B93F81035042B08D1114805F03A
:1011500017FA03F04BFE0E4B002283F8102500F027
:101160007DFB02467B68D31A41F287329342E6D96F
:10117000074B93F81035002BE1D1074805F000FA32
:1011800003F034FEDBE700BF309D0008589D0008E7
:101190000C030020809D0008BC9D000880B594B021
:1011A00000AF07F1200330220021184605F0E8FACD
:1011B00007F10C0300221A605A609A60DA601A6123
:1011C0000023BB60284B1B6C274A43F080531364F9
:1011D000254B1B6C03F08053BB60BB6800237B6016
:1011E000224B1B68214A43F4804313601F4B1B684A
:1011F00003F480437B607B6801233B624FF48033C0
:101200007B620223BB634FF48003FB6304233B64D4
:10121000A8237B640223BB640423FB6407F120033F
:10122000184601F01BFD0346002B01D000F020F80A
:101230000F23FB6002233B6100237B614FF4A0532B
:10124000BB614FF48053FB6107F10C030521184685
:1012500001F07CFF0346002B01D000F009F800BF2D
:101260005037BD4680BD00BF0038024000700040CE
:1012700080B400AF72B600BF00BFFDE780B483B09A
:1012800000AF00237B60104B5B6C0F4A43F480433C
:1012900053640D4B5B6C03F480437B607B680023DD
:1012A0003B60094B1B6C084A43F080531364064BA8
:1012B0001B6C03F080533B603B6800BF0C37BD469E
:1012C0005DF8047B704700BF0038024080B400AF77
:1012D00000BFFDE780B400AF00BFFDE780B400AF02
:1012E00000BFFDE780B400AF00BFFDE780B400AFF2
:1012F00000BFFDE780B400AF00BFBD465DF8047BD2
:10130000704780B400AF00BFBD465DF8047B7047F6
:1013100080B400AF00BFBD465DF8047B704780B568
:1013200000AF00F087FA00BF80BD000080B500AFBD
:10133000024802F015FB00BF80BD00BFF80100208D
:1013400080B500AF024800F095FD00BF80BD00BF32
:101350008802002080B400AF01231846BD465DF826
:10136000047B704780B582B000AF7860396005F0CB
:1013700059FA034616221A604FF0FF331846083711
:10138000BD4680BD80B582B000AF78604FF0FF31C0
:101390007868FFF7E7FF00BFFDE780B586B000AFD4
:1013A000F860B9607A6000237B610AE0AFF30080E7
:1013B0000146BB685A1CBA60CAB21A707B69013315
:1013C0007B617A697B689A42F0DB7B681846183744
:1013D000BD4680BD80B586B000AFF860B9607A6068
:1013E00000237B6109E0BB685A1CBA601B78184671
:1013F00000F088F87B6901337B617A697B689A42E7
:10140000F1DB7B6818461837BD4680BD80B483B0D9
:1014100000AF78604FF0FF3318460C37BD465DF8DB
:10142000047B704780B483B000AF786039603B685C
:101430004FF400525A60002318460C37BD465DF841
:10144000047B704780B483B000AF786001231846F6
:101450000C37BD465DF8047B704780B485B000AFA3
:10146000F860B9607A60002318461437BD465DF80D
:10147000047B704780B586B000AF7860144A154B86
:10148000D31A7B617B693B61134B1B68002B02D134
:10149000114B124A1A60104B1A687B6813443A6960
:1014A0009A4207D205F0BEF903460C221A604FF0AB
:1014B000FF3309E0084B1B68FB60074B1A687B6829
:1014C0001344054A1360FB6818461837BD4680BDB3
:1014D0000000022000040000F4010020800A002027
:1014E00080B400AF064BD3F88830054A43F470034C
:1014F000C2F8883000BFBD465DF8047B704700BF6E
:1015000000ED00E080B582B000AF7860391D4FF685
:10151000FF730122034802F089F87B6818460837F8
:10152000BD4680BD4002002080B500AF114B124A7D
:101530001A60104B4FF4E1325A600E4B00229A6051
:101540000C4B0022DA600B4B00221A61094B0C2273
:101550005A61084B00229A61064B0022DA61054865
:1015600002F014F80346002B01D0FFF781FE00BF04
:1015700080BD00BFF80100200010014080B500AF21
:10158000114B124A1A60104B4FF4E1325A600E4B65
:1015900000229A600C4B0022DA600B4B00221A6189
:1015A000094B0C225A61084B00229A61064B00221B
:1015B000DA61054801F0EAFF0346002B01D0FFF78E
:1015C00057FE00BF80BD00BF400200200044004025
:1015D00080B58CB000AF786007F11C0300221A6060
:1015E0005A609A60DA601A617B681B684D4A9342C0
:1015F00063D10023BB614C4B5B6C4B4A43F010033F
:101600005364494B5B6C03F01003BB61BB6900235F
:101610007B61454B1B6B444A43F001031363424B10
:101620001B6B03F001037B617B694FF4C063FB61BB
:1016300002233B6200237B620323BB620723FB621E
:1016400007F11C031946394801F052F9384B394A61
:101650001A60374B4FF000625A60354B00229A6097
:10166000334B0022DA60324B4FF480621A61304B08
:1016700000225A612E4B00229A612D4B0022DA6122
:101680002B4B00221A622A4B00225A62284800F093
:1016900059FA0346002B01D0FFF7EAFD7B68244A84
:1016A000DA63234A7B68936300220021252000F03F
:1016B00004FA252000F01DFA30E07B681B681E4A02
:1016C00093422BD100233B61174B1B6C164A43F40A
:1016D00000331364144B1B6C03F400333B613B6910
:1016E0000023FB60104B1B6B0F4A43F00103136395
:1016F0000D4B1B6B03F00103FB60FB680C23FB61CC
:1017000002233B6200237B620323BB620723FB624D
:1017100007F11C031946054801F0EAF800BF30370D
:10172000BD4680BD0010014000380240000002406C
:10173000880200204064024000440040DFF834D0BA
:10174000FFF7CEFE0C480D490D4A002302E0D458A5
:10175000C4500433C4188C42F9D30A4A0A4C0023FB
:1017600001E013600432A242FBD305F061F8FFF7F9
:10177000C9FC70470000022000000020D8010020B2
:1017800018A30008D80100207C0A0020FEE7000012
:1017900080B500AF0E4B1B680D4A43F40073136015
:1017A0000B4B1B680A4A43F480631360084B1B68A9
:1017B000074A43F480731360032000F073F90F208D
:1017C00000F008F8FFF75AFD0023184680BD00BF5F
:1017D000003C024080B582B000AF7860124B1A68BE
:1017E000124B1B7819464FF47A73B3FBF1F3B2FB3B
:1017F000F3F3184600F099F90346002B01D00123BA
:101800000EE07B680F2B0AD8002279684FF0FF307A
:1018100000F053F9064A7B681360002300E00123BF
:1018200018460837BD4680BD000000200800002093
:101830000400002080B400AF064B1B781A46064B0C
:101840001B681344044A136000BFBD465DF8047B67
:10185000704700BF08000020E802002080B400AFFD
:10186000034B1B681846BD465DF8047B704700BFFC
:10187000E802002080B584B000AF7860FFF7EEFF8B
:10188000B8607B68FB60FB68B3F1FF3F05D00A4B93
:101890001B781A46FB681344FB6000BFFFF7DEFFAE
:1018A0000246BB68D31AFA689A42F7D800BF00BF55
:1018B0001037BD4680BD00BF0800002080B485B051
:1018C00000AF78607B6803F00703FB600C4BDB68BC
:1018D000BB60BA684FF6FF031340BB60FB681A0297
:1018E000BB68134343F0BF6343F40033BB60044A57
:1018F000BB68D36000BF1437BD465DF8047B7047FA
:1019000000ED00E080B400AF044BDB681B0A03F07D
:1019100007031846BD465DF8047B704700ED00E004
:1019200080B483B000AF0346FB7197F90730002BFA
:101930000BDBFB7903F01F02074997F907305B09BE
:10194000012000FA02F241F8232000BF0C37BD4607
:101950005DF8047B704700BF00E100E080B483B015
:1019600000AF0346FB7197F90730002B12DBFB79C0
:1019700003F01F020A4997F907305B09012000FABA
:1019800002F2203341F82320BFF34F8F00BFBFF393
:101990006F8F00BF00BF0C37BD465DF8047B7047FA
:1019A00000E100E080B483B000AF03463960FB7112
:1019B00097F90730002B0ADB3B68DAB20C4997F93C
:1019C00007301201D2B20B4483F800230AE03B68CF
:1019D000DAB20849FB7903F00F03043B1201D2B2DB
:1019E0000B441A7600BF0C37BD465DF8047B704788
:1019F00000E100E000ED00E080B489B000AFF860E5
:101A0000B9607A60FB6803F00703FB61FB69C3F10F
:101A10000703042B28BF0423BB61FB690433062B97
:101A200002D9FB69033B00E000237B614FF0FF32EA
:101A3000BB6902FA03F3DA43BB681A407B699A4038
:101A40004FF0FF317B6901FA03F3D9437B680B4008
:101A5000134318462437BD465DF8047B70470000E9
:101A600080B582B000AF78607B68013BB3F1807FC6
:101A700001D301230FE00A4A7B68013B53600F2129
:101A80004FF0FF30FFF78EFF054B00229A60044BAA
:101A900007221A60002318460837BD4680BD00BFE4
:101AA00010E000E080B582B000AF78607868FFF7A2
:101AB00005FF00BF0837BD4680BD80B586B000AFCA
:101AC0000346B9607A60FB7300237B61FFF71AFF5E
:101AD00078617A68B9687869FFF78EFF024697F9EE
:101AE0000F3011461846FFF75DFF00BF1837BD469F
:101AF00080BD80B582B000AF0346FB7197F9073017
:101B00001846FFF70DFF00BF0837BD4680BD80B502
:101B100082B000AF0346FB7197F907301846FFF714
:101B20001DFF00BF0837BD4680BD80B582B000AF45
:101B300078607868FFF794FF034618460837BD467B
:101B400080BD000080B586B000AF786000237B6167
:101B5000FFF784FE38617B68002B01D1012399E0F7
:101B60007B68022283F835207B68002283F83420CA
:101B70007B681B681A687B681B6822F001021A6088
:101B80000FE0FFF76BFE02463B69D31A052B08D91D
:101B90007B6820225A657B68032283F83520032363
:101BA00078E07B681B681B6803F00103002BE8D119
:101BB0007B681B681B687B617A69384B13407B61CB
:101BC0007B685A687B689B681A437B68DB681A43AA
:101BD0007B681B691A437B685B691A437B689B6956
:101BE0001A437B68DB691A437B681B6A13437A6973
:101BF00013437B617B685B6A042B07D17B68DA6ADD
:101C00007B681B6B13437A6913437B617B681B689A
:101C10007A691A607B681B685B697B617B6923F06A
:101C200007037B617B685B6A7A6913437B617B682E
:101C30005B6A042B17D17B689B6A7A6913437B61CB
:101C40007B68DB6A002B0ED0786800F001FB03464E
:101C5000002B08D07B6840225A657B68012283F8FC
:101C60003520012316E07B681B687A695A61786821
:101C700000F0B8FA0346FB607B68DB6D3F229A40B8
:101C8000FB689A607B6800225A657B68012283F8B2
:101C90003520002318461837BD4680BD3F8010F020
:101CA00080B586B000AFF860B9607A603B60002311
:101CB000FB75FB689B6D3B61FB6893F83430012B2F
:101CC00001D1022340E0FB68012283F83420FB6845
:101CD00093F83530DBB2012B2FD1FB68022283F859
:101CE0003520FB6800225A653B687A68B968F86855
:101CF00000F04AFAFB68DB6D3F229A403B699A602C
:101D0000FB681B681A68FB681B6842F016021A60C1
:101D1000FB681B6C002B07D0FB681B681A68FB680C
:101D20001B6842F008021A60FB681B681A68FB68AF
:101D30001B6842F001021A6005E0FB68002283F88C
:101D400034200223FB75FB7D18461837BD4680BD45
:101D500080B584B000AF78607B689B6DFB60FFF757
:101D60007DFDB8607B6893F83530DBB2022B08D07C
:101D70007B6880225A657B68002283F83420012327
:101D800052E07B681B681A687B681B6822F01602A9
:101D90001A607B681B685A697B681B6822F08002A6
:101DA0005A617B681B6C002B03D17B689B6C002BFA
:101DB00007D07B681B681A687B681B6822F00802E2
:101DC0001A607B681B681A687B681B6822F0010236
:101DD0001A6013E0FFF742FD0246BB68D31A052BD9
:101DE0000CD97B6820225A657B68032283F8352052
:101DF0007B68002283F83420032315E07B681B688E
:101E00001B6803F00103002BE4D17B68DB6D3F22EC
:101E10009A40FB689A607B68012283F835207B68D2
:101E2000002283F83420002318461037BD4680BDB9
:101E300080B483B000AF78607B6893F83530DBB254
:101E4000022B04D07B6880225A6501230CE07B685A
:101E5000052283F835207B681B681A687B681B683D
:101E600022F001021A60002318460C37BD465DF8C7
:101E7000047B704780B586B000AF78600023BB60FC
:101E80008E4B1B688E4AA2FB03239B0A7B617B68F7
:101E90009B6D3B613B691B68FB607B68DB6D0822C7
:101EA0009A40FB681340002B1AD07B681B681B68A4
:101EB00003F00403002B13D07B681B681A687B684F
:101EC0001B6822F004021A607B68DB6D08229A40CE
:101ED0003B699A607B685B6D43F001027B685A65E1
:101EE0007B68DB6D01229A40FB681340002B12D007
:101EF0007B681B685B6903F08003002B0BD07B6859
:101F0000DB6D01229A403B699A607B685B6D43F010
:101F100002027B685A657B68DB6D04229A40FB688D
:101F20001340002B12D07B681B681B6803F0020370
:101F3000002B0BD07B68DB6D04229A403B699A60D2
:101F40007B685B6D43F004027B685A657B68DB6DE0
:101F500010229A40FB681340002B43D07B681B681B
:101F60001B6803F00803002B3CD07B68DB6D10225C
:101F70009A403B699A607B681B681B6803F4802366
:101F8000002B18D07B681B681B6803F40023002B10
:101F900008D17B681B6C002B24D07B681B6C786895
:101FA00098471FE07B689B6C002B1BD07B689B6C69
:101FB0007868984716E07B681B681B6803F4807399
:101FC000002B07D17B681B681A687B681B6822F0AE
:101FD00008021A607B681B6C002B03D07B681B6CAB
:101FE000786898477B68DB6D20229A40FB68134035
:101FF000002B00F08F807B681B681B6803F01003C8
:10200000002B00F087807B68DB6D20229A403B69C3
:102010009A607B6893F83530DBB2052B36D17B684C
:102020001B681A687B681B6822F016021A607B68BE
:102030001B685A697B681B6822F080025A617B68C2
:102040001B6C002B03D17B689B6C002B07D07B683B
:102050001B681A687B681B6822F008021A607B689C
:10206000DB6D3F229A403B699A607B68012283F8CE
:1020700035207B68002283F834207B681B6D002BA1
:102080007ED07B681B6D7868984779E07B681B6819
:102090001B6803F48023002B1DD07B681B681B6822
:1020A00003F40023002B0DD17B685B6C002B31D037
:1020B0007B685B6C786898472CE000BF00000020CC
:1020C000B5814E1B7B68DB6B002B23D07B68DB6B01
:1020D000786898471EE07B681B681B6803F4807370
:1020E000002B0FD17B681B681A687B681B6822F085
:1020F00010021A607B68012283F835207B68002279
:1021000083F834207B68DB6B002B03D07B68DB6BB0
:10211000786898477B685B6D002B32D07B685B6D7D
:1021200003F00103002B22D07B68052283F83520C1
:102130007B681B681A687B681B6822F001021A60C2
:10214000BB680133BB607A699A4207D37B681B681E
:102150001B6803F00103002BF2D100E000BF7B6895
:10216000012283F835207B68002283F834207B68C5
:10217000DB6C002B05D07B68DB6C7868984700E04F
:1021800000BF1837BD4680BD80B485B000AFF86091
:10219000B9607A603B60FB681B681A68FB681B6863
:1021A00022F480221A60FB681B683A685A60FB6858
:1021B0009B68402B08D1FB681B687A689A60FB68B3
:1021C0001B68BA68DA6007E0FB681B68BA689A6047
:1021D000FB681B687A68DA6000BF1437BD465DF89B
:1021E000047B704780B485B000AF78607B681B6863
:1021F000DBB2103B144AA2FB03231B09FB60134A0A
:10220000FB6813441B781A467B68DA65FB68032B6E
:1022100009D97B681B6823F47F7323F003031A1D1D
:102220007B689A6507E07B681B6823F47F7323F063
:1022300003037A6893657B689B6D18461437BD4627
:102240005DF8047B704700BFABAAAAAAD49E000821
:1022500080B485B000AF78600023FB737B689B6A15
:10226000BB607B689B69002B1FD1BB68032B56D8D2
:1022700001A252F823F000BF892200089B22000827
:10228000892200081F2300087B68DB6A03F0807343
:10229000002B46D00123FB7343E07B68DB6AB3F17C
:1022A000C07F40D10123FB733DE07B689B69B3F5A0
:1022B000005F21D1BB68032B37D801A252F823F06D
:1022C000D1220008D7220008D1220008E922000804
:1022D0000123FB7330E07B68DB6A03F08073002B23
:1022E00025D00123FB7322E07B68DB6AB3F1C07F5A
:1022F0001FD10123FB731CE0BB68022B03D9BB6811
:10230000032B03D018E00123FB7315E07B68DB6A25
:1023100003F08073002B0ED00123FB730BE000BF92
:102320000AE000BF08E000BF06E000BF04E000BF15
:1023300002E000BF00E000BFFB7B18461437BD463B
:102340005DF8047B704700BF80B586B000AFF860D1
:10235000B960C7E90023234B1B7E012B01D1022367
:102360003BE0204B01221A764CF2503000F070F81E
:102370000346FB75FB7D002B2BD1FB68002B05D1A1
:102380003B781946B86800F01BF916E0FB68012B92
:1023900005D13B881946B86800F0EEF80DE0FB68FF
:1023A000022B05D13B681946B86800F0C3F804E079
:1023B000D7E90023B86800F08BF84CF2503000F0F9
:1023C00047F80346FB75084B1B69074A23F00103D6
:1023D0001361044B00221A76FB7D18461837BD4660
:1023E00080BD00BFEC020020003C024080B483B0FE
:1023F00000AF0023FB710B4B1B69002B0BDA094B61
:10240000094A5A60074B094A5A60064B1B69002B60
:1024100001DA0123FB71FB7918460C37BD465DF8E4
:10242000047B7047003C024023016745AB89EFCD38
:1024300080B400AF054B1B69044A43F000431361AD
:1024400000231846BD465DF8047B7047003C0240FF
:1024500080B584B000AF78600023FB601A4B002287
:10246000DA61FFF7FBF9F86010E07B68B3F1FF3F3A
:102470000CD07B68002B07D0FFF7F0F90246FB6811
:10248000D31A7A689A4201D2032319E00F4BDB6812
:1024900003F48033002BE8D10C4BDB6803F001031D
:1024A000002B02D0094B0122DA60084BDB6803F0F5
:1024B000F203002B03D000F0A5F8012300E0002375
:1024C00018461037BD4680BDEC020020003C02409B
:1024D00080B485B000AFF860C7E90023144B1B69D6
:1024E000134A23F440731361114B1B69104A43F4E0
:1024F000407313610E4B1B690D4A43F001031361D6
:10250000FB683A681A60BFF36F8F00BFD7E900011C
:102510004FF000024FF000030A000023F968043175
:1025200013460B6000BF1437BD465DF8047B70474F
:10253000003C024080B483B000AF786039600D4B3E
:102540001B690C4A23F4407313610A4B1B69094A47
:1025500043F400731361074B1B69064A43F0010300
:1025600013617B683A681A6000BF0C37BD465DF89E
:10257000047B7047003C024080B483B000AF7860B9
:102580000B467B800D4B1B690C4A23F4407313618F
:102590000A4B1B69094A43F480731361074B1B699B
:1025A000064A43F0010313617B687A881A8000BFF2
:1025B0000C37BD465DF8047B704700BF003C02400D
:1025C00080B483B000AF78600B46FB700C4B1B6986
:1025D0000B4A23F440731361094B094A1B691361C9
:1025E000074B1B69064A43F0010313617B68FA78C5
:1025F0001A7000BF0C37BD465DF8047B704700BF02
:10260000003C024080B400AF274BDB6803F01003AE
:10261000002B08D0254BDB6943F01003234AD3611C
:10262000214B1022DA60204BDB6803F02003002BE3
:1026300008D01E4BDB6943F008031C4AD3611A4BD8
:102640002022DA60184BDB6803F04003002B08D02F
:10265000164BDB6943F00403144AD361124B40224A
:10266000DA60114BDB6803F08003002B08D00F4BBE
:10267000DB6943F002030D4AD3610B4B8022DA6021
:10268000094BDB6803F00203002B08D0074BDB6922
:1026900043F02003054AD361034B0222DA6000BFF6
:1026A000BD465DF8047B7047003C0240EC02002010
:1026B00080B584B000AF786039600023BB60314BD7
:1026C0001B7E012B01D1022358E02E4B01221A76EA
:1026D0004CF25030FFF7BCFE0346FB73FB7B002B34
:1026E00048D13B684FF0FF321A607B681B68012BB2
:1026F00015D17B681B69DAB27B685B6819461046A6
:1027000000F044F84CF25030FFF7A2FE0346FB7392
:102710001D4B1B691C4A23F00403136128E07B68EE
:102720009B68BB601CE07B681B69DBB21946B8681C
:1027300000F050F84CF25030FFF78AFE0346FB736E
:10274000114B1B69104A23F07A031361FB7B002BAA
:1027500003D03B68BA681A600AE0BB680133BB600B
:102760007B68DA687B689B681344BA689A42DAD35C
:1027700000F078F8034B00221A76FB7B18461037DE
:10278000BD4680BDEC020020003C024080B483B016
:1027900000AF03463960FB710D4B1B690C4A23F4F3
:1027A000407313610A4B1B69094A43F00403136128
:1027B000074B1A69FB791B021343054A43F4803324
:1027C000136100BF0C37BD465DF8047B704700BF46
:1027D000003C024080B485B000AF78600B46FB70CF
:1027E0000023FB60FB78002B02D10023FB6010E08C
:1027F000FB78012B03D14FF48073FB6009E0FB7879
:10280000022B03D14FF40073FB6002E04FF44073DE
:10281000FB60134B1B69124A23F440731361104B86
:102820001A690F49FB6813430B610D4B1B690C4A76
:1028300023F0780313610A4B1A697B68DB001343AA
:10284000074A43F002031361054B1B69044A43F432
:102850008033136100BF1437BD465DF8047B7047B9
:10286000003C024080B400AF204B1B6803F40073AF
:10287000002B17D01D4B1B681C4A23F400731360F8
:102880001A4B1B68194A43F400631360174B1B680B
:10289000164A23F400631360144B1B68134A43F475
:1028A00000731360114B1B6803F48063002B17D077
:1028B0000E4B1B680D4A23F4806313600B4B1B689F
:1028C0000A4A43F480531360084B1B68074A23F4F9
:1028D00080531360054B1B68044A43F48063136004
:1028E00000BFBD465DF8047B704700BF003C02405E
:1028F00080B489B000AF7860396000237B61002329
:102900003B610023BB610023FB616BE10122FB699A
:1029100002FA03F37B613B681B687A6913403B61F1
:102920003A697B699A4240F05A813B685B6803F0E0
:102930000303012B05D03B685B6803F00303022B04
:1029400030D17B689B68BB61FB695B00032202FAA4
:1029500003F3DB43BA691340BB613B68DA68FB6988
:102960005B0002FA03F3BA691343BB617B68BA697F
:102970009A607B685B68BB610122FB6902FA03F322
:10298000DB43BA691340BB613B685B681B0903F01A
:102990000102FB6902FA03F3BA691343BB617B6866
:1029A000BA695A603B685B6803F00303032B17D0D6
:1029B0007B68DB68BB61FB695B00032202FA03F3FF
:1029C000DB43BA691340BB613B689A68FB695B00F3
:1029D00002FA03F3BA691343BB617B68BA69DA6030
:1029E0003B685B6803F00303022B23D1FB69DA0821
:1029F0007B68083253F82230BB61FB6903F00703A0
:102A00009B000F2202FA03F3DB43BA691340BB6158
:102A10003B681A69FB6903F007039B0002FA03F3A2
:102A2000BA691343BB61FB69DA087B680832B9698C
:102A300043F822107B681B68BB61FB695B000322C3
:102A400002FA03F3DB43BA691340BB613B685B687E
:102A500003F00302FB695B0002FA03F3BA69134354
:102A6000BB617B68BA691A603B685B6803F44033FA
:102A7000002B00F0B4800023FB60604B5B6C5F4A6E
:102A800043F4804353645D4B5B6C03F48043FB6011
:102A9000FB685B4AFB699B08023352F82330BB6139
:102AA000FB6903F003039B000F2202FA03F3DB43ED
:102AB000BA691340BB617B68524A93422BD07B6852
:102AC000514A934225D07B68504A93421FD07B687D
:102AD0004F4A934219D07B684E4A934213D07B6889
:102AE0004D4A93420DD07B684C4A934207D07B6895
:102AF0004B4A934201D107230EE008230CE0062342
:102B00000AE0052308E0042306E0032304E002238F
:102B100002E0012300E00023FA6902F003029200C0
:102B20009340BA691343BB613549FB699B08023383
:102B3000BA6941F823203B4B9B68BB613B69DB438F
:102B4000BA691340BB613B685B6803F48013002BD8
:102B500003D0BA693B691343BB61324ABB699360D6
:102B6000304BDB68BB613B69DB43BA691340BB6137
:102B70003B685B6803F40013002B03D0BA693B6920
:102B80001343BB61274ABB69D360264B5B68BB61BB
:102B90003B69DB43BA691340BB613B685B6803F484
:102BA0000033002B03D0BA693B691343BB611D4A54
:102BB000BB6953601B4B1B68BB613B69DB43BA6954
:102BC0001340BB613B685B6803F48033002B03D088
:102BD000BA693B691343BB61124ABB691360FB6965
:102BE0000133FB61FB690F2B7FF690AE00BF00BF86
:102BF0002437BD465DF8047B704700BF00380240B3
:102C00000038014000000240000402400008024079
:102C1000000C024000100240001402400018024064
:102C2000001C0240003C014080B483B000AF7860DB
:102C30000B467B8013467B707B78002B03D07A8811
:102C40007B689A6103E07B881A047B689A6100BF05
:102C50000C37BD465DF8047B7047000080B586B038
:102C600000AF78607B68002B01D1012367E27B68AD
:102C70001B6803F00103002B75D0884B9B6803F0A1
:102C80000C03042B0CD0854B9B6803F00C03082B22
:102C900012D1824B5B6803F48003B3F5800F0BD134
:102CA0007E4B1B6803F40033002B5BD07B685B68B2
:102CB000002B57D1012342E27B685B68B3F5803F6C
:102CC00006D1764B1B68754A43F4803313601DE0D0
:102CD0007B685B68B3F5A02F0CD1704B1B686F4A03
:102CE00043F4802313606D4B1B686C4A43F48033BC
:102CF00013600BE0694B1B68684A23F48033136050
:102D0000664B1B68654A23F4802313607B685B680D
:102D1000002B13D0FEF7A2FD386108E0FEF79EFD00
:102D200002463B69D31A642B01D9032307E25B4BAC
:102D30001B6803F40033002BF0D014E0FEF78EFD87
:102D4000386108E0FEF78AFD02463B69D31A642B1E
:102D500001D90323F3E1514B1B6803F40033002B2B
:102D6000F0D100E000BF7B681B6803F00203002B7A
:102D700063D04A4B9B6803F00C03002B0BD0474BEE
:102D80009B6803F00C03082B1CD1444B5B6803F4D5
:102D90008003002B16D1414B1B6803F00203002B6C
:102DA00005D07B68DB68012B01D00123C7E13B4BD9
:102DB0001B6823F0F8027B681B69DB00374913436B
:102DC0000B603AE07B68DB68002B20D0344B01229B
:102DD0001A60FEF743FD386108E0FEF73FFD02464A
:102DE0003B69D31A022B01D90323A8E12B4B1B68A3
:102DF00003F00203002BF0D0284B1B6823F0F802ED
:102E00007B681B69DB00254913430B6015E0244BED
:102E100000221A60FEF722FD386108E0FEF71EFD71
:102E200002463B69D31A022B01D9032387E11B4BCE
:102E30001B6803F00203002BF0D17B681B6803F0D2
:102E40000803002B36D07B685B69002B16D0154B2E
:102E500001221A60FEF702FD386108E0FEF7FEFC71
:102E600002463B69D31A022B01D9032367E10B4BBE
:102E70005B6F03F00203002BF0D01BE0094B002234
:102E80001A60FEF7EBFC38610EE0FEF7E7FC024645
:102E90003B69D31A022B07D9032350E100380240C3
:102EA00000004742800E4742884B5B6F03F00203ED
:102EB000002BEAD17B681B6803F00403002B00F0B1
:102EC00097800023FB75814B1B6C03F08053002B14
:102ED0000FD10023BB607D4B1B6C7C4A43F08053B9
:102EE00013647A4B1B6C03F08053BB60BB680123F7
:102EF000FB75774B1B6803F48073002B18D1744B60
:102F00001B68734A43F480731360FEF7A7FC3861B3
:102F100008E0FEF7A3FC02463B69D31A022B01D955
:102F200003230CE16A4B1B6803F48073002BF0D081
:102F30007B689B68012B06D1644B1B6F634A43F08F
:102F4000010313671CE07B689B68052B0CD15F4B6A
:102F50001B6F5E4A43F0040313675C4B1B6F5B4AB5
:102F600043F0010313670BE0584B1B6F574A23F0E4
:102F700001031367554B1B6F544A23F00403136777
:102F80007B689B68002B15D0FEF768FC38610AE06F
:102F9000FEF764FC02463B69D31A41F28832934241
:102FA00001D90323CBE0494B1B6F03F00203002B35
:102FB000EED014E0FEF752FC38610AE0FEF74EFC5A
:102FC00002463B69D31A41F28832934201D9032366
:102FD000B5E03E4B1B6F03F00203002BEED1FB7DEF
:102FE000012B05D1394B1B6C384A23F080531364F5
:102FF0007B689B69002B00F0A180344B9B6803F039
:103000000C03082B5CD07B689B69022B41D1314BB0
:1030100000221A60FEF722FC386108E0FEF71EFC71
:1030200002463B69D31A022B01D9032387E0274BC1
:103030001B6803F00073002BF0D17B68DA697B68B2
:103040001B6A1A437B685B6A9B011A437B689B6A15
:103050005B08013B1B041A437B68DB6A1B061B49A8
:1030600013434B601B4B01221A60FEF7F7FB3861DC
:1030700008E0FEF7F3FB02463B69D31A022B01D9A5
:1030800003235CE0114B1B6803F00073002BF0D0AE
:1030900054E0104B00221A60FEF7E0FB386108E0B4
:1030A000FEF7DCFB02463B69D31A022B01D903234E
:1030B00045E0064B1B6803F00073002BF0D13DE0A8
:1030C0007B689B69012B07D1012338E0003802405F
:1030D00000700040600047421B4B5B68FB607B68F0
:1030E0009B69012B28D0FB6803F480027B68DB69B5
:1030F0009A4221D1FB6803F03F027B681B6A9A4227
:103100001AD1FA6847F6C07313407A68526A92017E
:10311000934211D1FB6803F440327B689B6A5B08E1
:10312000013B1B049A4207D1FB6803F070627B6885
:10313000DB6A1B069A4201D0012300E000231846F7
:103140001837BD4680BD00BF0038024080B584B04E
:1031500000AF786039607B68002B01D10123CCE09F
:10316000684B1B6803F007033A689A420CD9654B19
:103170003A68D2B21A70634B1B6803F007033A68CF
:103180009A4201D00123B8E07B681B6803F0020378
:10319000002B20D07B681B6803F00403002B05D0B4
:1031A000594B9B68584A43F4E05393607B681B6813
:1031B00003F00803002B05D0534B9B68524A43F49D
:1031C00060439360504B9B6823F0F0027B689B68E0
:1031D0004D4913438B607B681B6803F00103002B90
:1031E00044D07B685B68012B07D1474B1B6803F415
:1031F0000033002B19D101237FE07B685B68022B31
:1032000003D07B685B68032B07D13F4B1B6803F03F
:103210000073002B09D101236FE03B4B1B6803F0C7
:103220000203002B01D1012367E0374B9B6823F099
:1032300003027B685B68344913438B60FEF70EFB27
:10324000F8600AE0FEF70AFB0246FB68D31A41F277
:103250008832934201D903234FE02B4B9B6803F044
:103260000C027B685B689B009A42EBD1254B1B6884
:1032700003F007033A689A420CD2224B3A68D2B262
:103280001A70204B1B6803F007033A689A4201D07A
:10329000012332E07B681B6803F00403002B08D095
:1032A000194B9B6823F4E0527B68DB681649134393
:1032B0008B607B681B6803F00803002B09D0124B5E
:1032C0009B6823F460427B681B69DB000E49134353
:1032D0008B6000F021F802460B4B9B681B0903F042
:1032E0000F030A49CB5C22FA03F3094A1360094B26
:1032F0001B681846FEF76EFA002318461037BD46C5
:1033000080BD00BF003C024000380240BC9E000867
:1033100000000020040000202DE9B04F94B000AF61
:1033200000237B640023FB6400233B640023BB6415
:10333000794B9B6803F00C03082B0DD0082B00F28F
:10334000E180002B02D0042B03D0DBE0734BBB6485
:10335000DBE0734BBB64D8E06F4B5B6803F03F036B
:103360007B646D4B5B6803F48003002B63D06A4B76
:103370005B689B090022BB63FA63BB6BC3F3080362
:103380003B6300237B63D7E90C4522462B464FF075
:1033900000004FF00001590141EAD261500102469C
:1033A0000B462146511A3961294663EB01037B61C3
:1033B0004FF000024FF00003D7E904AB59468B01F0
:1033C000514643EA916351468A015146B2EB0108E6
:1033D000594663EB01094FF000024FF000034FEA3A
:1033E000C90343EA58734FEAC802904699462346F8
:1033F00018EB0303BB602B4649EB0303FB604FF064
:1034000000024FF00003D7E9024529464B0221464E
:1034100043EAD15321464A02104619467B6C0022EA
:10342000BB62FA62D7E90A23FDF72EFC02460B467F
:103430001346FB6458E0384B5B689B090022184632
:103440001146C0F308033B6200237B62D7E9088979
:1034500042464B464FF000004FF00001590141EA4F
:10346000D261500102460B464146B2EB010A494681
:1034700063EB010B4FF000024FF000034FEA8B1398
:1034800043EA9A634FEA8A12B2EB0A0463EB0B0534
:103490004FF000024FF00003EB0043EA5473E200E8
:1034A00014461D464346E3183B604B4645EB030379
:1034B0007B604FF000024FF00003D7E9004529463A
:1034C0008B02214643EA915321468A02104619464F
:1034D0007B6C0022BB61FA61D7E90623FDF7D4FBC0
:1034E00002460B461346FB640B4B5B681B0C03F058
:1034F000030301335B003B64FA6C3B6CB2FBF3F3F8
:10350000BB6402E0054BBB6400BFBB6C1846503780
:10351000BD46BDE8B08F00BF003802400024F40073
:1035200000127A0080B400AF034B1B681846BD46FA
:103530005DF8047B704700BF0000002080B500AF3D
:10354000FFF7F0FF0246054B9B689B0A03F0070359
:103550000349CB5C22FA03F3184680BD00380240D1
:10356000CC9E000880B500AFFFF7DCFF0246054B9C
:103570009B685B0B03F007030349CB5C22FA03F360
:10358000184680BD00380240CC9E000880B582B04D
:1035900000AF78607B68002B01D1012342E07B689B
:1035A00093F84130DBB2002B06D17B68002283F810
:1035B00040207868FEF70CF87B68242283F84120CD
:1035C0007B681B68DA687B681B6822F40052DA604B
:1035D000786801F057F87B681B681A697B681B687C
:1035E00022F490421A617B681B685A697B681B68E9
:1035F00022F02A025A617B681B68DA687B681B68C4
:1036000042F40052DA607B6800225A647B68202210
:1036100083F841207B68202283F842207B680022C7
:103620005A63002318460837BD4680BD80B58AB06E
:1036300002AFF860B9603B601346FB8000237B61FA
:10364000FB6893F84130DBB2202B75D1BB68002BAF
:1036500002D0FB88002B01D101236EE0FB68002221
:103660005A64FB68212283F84120FEF7F7F878615D
:10367000FB68FA889A84FB68FA88DA84FB689B689E
:10368000B3F5805F08D1FB681B69002B04D10023D0
:10369000FB61BB68BB6103E0BB68FB610023BB61EE
:1036A0002EE03B6800937B6900228021F86800F0DF
:1036B00027FD0346002B05D0FB68202283F841201C
:1036C00003233AE0FB69002B0BD1BB691B881A4628
:1036D000FB681B68C2F308025A60BB690233BB6116
:1036E00007E0FB691A78FB681B685A60FB690133C5
:1036F000FB61FB68DB8C9BB2013B9AB2FB68DA840E
:10370000FB68DB8C9BB2002BCBD13B6800937B69C1
:1037100000224021F86800F0F3FC0346002B05D09E
:10372000FB68202283F84120032306E0FB68202267
:1037300083F84120002300E0022318462037BD46CD
:1037400080BD80B485B000AFF860B9601346FB80DF
:10375000FB6893F84130DBB2202B21D1BB68002BF2
:1037600002D0FB88002B01D101231AE0FB68BA6864
:103770001A62FB68FA889A84FB68FA88DA84FB6824
:1037800000225A64FB68212283F84120FB681B68F1
:10379000DA68FB681B6842F08002DA60002300E010
:1037A000022318461437BD465DF8047B704780B588
:1037B00090B000AF78600023FB637B681B685B6997
:1037C00003F08003802B0CBF01230023DBB2FB63DB
:1037D0007B6893F84130DBB2212B28D1FB6B002BA7
:1037E00025D07B681B6814337B627B6A53E8003FFB
:1037F0003B623B6A23F08003BB637B681B68143326
:10380000BA6B3A63FB62F96A3A6B41E80023BB6228
:10381000BB6A002BE5D17B689B6B002B04D07B68D7
:103820009B6B1846FEF794FA786800F069FD7B6898
:103830001B685B6903F04003402B0CBF012300238E
:10384000DBB2FB637B6893F84230DBB2222B28D1DA
:10385000FB6B002B25D07B681B6814333B613B69F5
:1038600053E8003FFB60FB6823F040037B637B6809
:103870001B6814337A6BFA61BB61B969FA6941E874
:1038800000237B617B69002BE5D17B68DB6B002B20
:1038900004D07B68DB6B1846FEF75AFA786800F0B4
:1038A00057FD002318464037BD4680BD80B58CB01B
:1038B00000AFF860B9601346FB80FB6893F84230B4
:1038C000DBB2202B46D1BB68002B02D0FB88002B3B
:1038D00001D101233FE0FB6801221A63FB6800224B
:1038E0005A63FB881A46B968F86800F063FC03461F
:1038F00087F82F30FB681B6B012B25D100233B6120
:10390000FB681B681B683B61FB681B685B683B616D
:103910003B69FB681B680C33BB61BB6953E8003F24
:103920007B617B6943F01003BB62FB681B680C334F
:10393000BA6A7A623B62396A7A6A41E80023FB61BB
:10394000FB69002BE5D102E0012387F82F3097F8BF
:103950002F3000E0022318463037BD4680BD0000FE
:1039600080B5BAB000AF78607B681B681B68C7F889
:10397000E4307B681B68DB68C7F8E0307B681B6855
:103980005B69C7F8DC300023C7F8D8300023C7F8DC
:10399000D430D7F8E43003F00F03C7F8D830D7F8A5
:1039A000D830002B0FD1D7F8E43003F02003002BE0
:1039B00009D0D7F8E03003F02003002B03D078685B
:1039C00000F0A2FD73E2D7F8D830002B00F0DE80C3
:1039D000D7F8DC3003F00103002B06D1D7F8E03034
:1039E00003F49073002B00F0D180D7F8E43003F09B
:1039F0000103002B0BD0D7F8E03003F48073002BC9
:103A000005D07B685B6C43F001027B685A64D7F891
:103A1000E43003F00403002B0BD0D7F8DC3003F0C4
:103A20000103002B05D07B685B6C43F002027B68CE
:103A30005A64D7F8E43003F00203002B0BD0D7F818
:103A4000DC3003F00103002B05D07B685B6C43F096
:103A500004027B685A64D7F8E43003F00803002BB3
:103A600011D0D7F8E03003F02003002B05D1D7F8B0
:103A7000DC3003F00103002B05D07B685B6C43F066
:103A800008027B685A647B685B6C002B00F00A823A
:103A9000D7F8E43003F02003002B08D0D7F8E0304B
:103AA00003F02003002B02D0786800F02DFD7B6826
:103AB0001B685B6903F04003402B0CBF012300230C
:103AC000DBB2C7F8D4307B685B6C03F00803002BD3
:103AD00003D1D7F8D430002B4FD0786800F038FCF1
:103AE0007B681B685B6903F04003402B41D17B6816
:103AF0001B681433C7F89C30D7F89C3053E8003F5C
:103B0000C7F89830D7F8983023F04003C7F8D03082
:103B10007B681B681433D7F8D020C7F8A820C7F8F3
:103B2000A430D7F8A410D7F8A82041E80023C7F89C
:103B3000A030D7F8A030002BD9D17B68DB6B002BED
:103B400013D07B68DB6B8A4A1A657B68DB6B18468F
:103B5000FEF76EF90346002B16D07B68DB6B1B6DFE
:103B60007A68D26B104698470EE0786800F0C0F98A
:103B70000AE0786800F0BCF906E0786800F0B8F96F
:103B80007B6800225A648DE100BF8BE17B681B6B70
:103B9000012B40F06781D7F8E43003F01003002BCD
:103BA00000F06081D7F8E03003F01003002B00F044
:103BB00059810023BB607B681B681B68BB607B6806
:103BC0001B685B68BB60BB687B681B685B6903F054
:103BD0004003402B40F0CE807B68DB6B1B685B684A
:103BE000A7F8BE30B7F8BE30002B00F0A9807B6884
:103BF0009B8DB7F8BE209A4280F0A2807B68B7F810
:103C0000BE20DA857B68DB6BDB69B3F5807F00F073
:103C100088807B681B680C33C7F88830D7F88830F9
:103C200053E8003FC7F88430D7F8843023F480731A
:103C3000C7F8B8307B681B680C33D7F8B820C7F8D2
:103C40009420C7F89030D7F89010D7F8942041E826
:103C50000023C7F88C30D7F88C30002BD9D17B6883
:103C60001B6814337B677B6F53E8003F3B673B6FF8
:103C700023F00103C7F8B4307B681B681433D7F80E
:103C8000B420C7F88020FB67F96FD7F8802041E89F
:103C90000023BB67BB6F002BE1D17B681B6814332B
:103CA0003B663B6E53E8003FFB65FB6D23F0400332
:103CB000C7F8B0307B681B681433D7F8B020FA66B9
:103CC000BB66B96EFA6E41E800237B667B6E002B03
:103CD000E3D17B68202283F842207B6800221A63AC
:103CE0007B681B680C33FB64FB6C53E8003FBB64D0
:103CF000BB6C23F01003C7F8AC307B681B680C3337
:103D0000D7F8AC20BA657B65796DBA6D41E80023C0
:103D10003B653B6D002BE3D17B68DB6B1846FEF700
:103D200017F87B6802225A637B689A8D7B68DB8D6B
:103D30009BB2D31A9BB21946786801F029F8B3E018
:103D40007B689B8DB7F8BE209A4240F0AD807B68BF
:103D5000DB6BDB69B3F5807F40F0A6807B680222D5
:103D60005A637B689B8D1946786801F011F89BE0D7
:103D7000174400087B689A8D7B68DB8D9BB2D31A51
:103D8000A7F8CE307B68DB8D9BB2002B00F08E80D5
:103D9000B7F8CE30002B00F089807B681B680C33AD
:103DA000BB63BB6B53E8003F7B637B6B23F4907377
:103DB000C7F8C8307B681B680C33D7F8C8207A6412
:103DC0003B64396C7A6C41E80023FB63FB6B002B8E
:103DD000E3D17B681B6814337B627B6A53E8003F46
:103DE0003B623B6A23F00103C7F8C4307B681B6861
:103DF0001433D7F8C4203A63FB62F96A3A6B41E89E
:103E00000023BB62BB6A002BE3D17B68202283F8CE
:103E100042207B6800221A637B681B680C333B617D
:103E20003B6953E8003FFB60FB6823F01003C7F8D1
:103E3000C0307B681B680C33D7F8C020FA61BB61C7
:103E4000B969FA6941E800237B617B69002BE3D102
:103E50007B6802225A63B7F8CE301946786800F0C2
:103E600097FF23E0D7F8E43003F08003002B09D05C
:103E7000D7F8E03003F08003002B03D0786800F01F
:103E8000DBFA14E0D7F8E43003F04003002B0ED047
:103E9000D7F8E03003F04003002B08D0786800F03A
:103EA0001BFB04E000BF02E000BF00E000BFE837FA
:103EB000BD4680BD80B483B000AF786000BF0C37D2
:103EC000BD465DF8047B704780B483B000AF786076
:103ED00000BF0C37BD465DF8047B704780B483B0EB
:103EE00000AF786000BF0C37BD465DF8047B7047BB
:103EF00080B483B000AF786000BF0C37BD465DF87A
:103F0000047B704780B59CB000AF78607B689B6B8A
:103F1000FB667B681B681B6803F48073002B72D1FF
:103F2000FB6E0022DA85FB6E1B680C33FB64FB6CB6
:103F300053E8003FBB64BB6C23F48073BB66FB6E2D
:103F40001B680C33BA6EBA657B65796DBA6D41E852
:103F500000233B653B6D002BE5D1FB6E1B681433E2
:103F6000BB63BB6B53E8003F7B637B6B23F00103B8
:103F70007B66FB6E1B6814337A6E7A643B64396C23
:103F80007A6C41E80023FB63FB6B002BE5D1FB6EF1
:103F90001B6814337B627B6A53E8003F3B623B6AD9
:103FA00023F040033B66FB6E1B6814333A6E3A63A2
:103FB000FB62F96A3A6B41E80023BB62BB6A002BE3
:103FC000E5D1FB6E202283F84220FB6E1B6B012B98
:103FD00019D1FB6E1B680C333B613B6953E8003F12
:103FE000FB60FB6823F01003FB65FB6E1B680C3362
:103FF000FA6DFA61BB61B969FA6941E800237B6136
:104000007B69002BE5D1FB6E00225A63FB6E1B6BB4
:10401000012B06D1FB6E9B8D1946F86E00F0B8FEA1
:1040200002E0F86EFFF750FF00BF7037BD4680BD5D
:1040300080B584B000AF78607B689B6BFB60FB68E9
:1040400001225A63FB681B6B012B08D1FB689B8D17
:104050005B089BB21946F86800F09AFE02E0F86827
:10406000FFF73CFF00BF1037BD4680BD80B584B070
:1040700000AF78600023FB607B689B6BBB60BB6814
:104080001B685B6903F08003802B0CBF01230023B6
:10409000DBB2FB60BB6893F84130DBB2212B08D167
:1040A000FB68002B05D0BB680022DA84B86800F0FA
:1040B00027F9BB681B685B6903F04003402B0CBF0A
:1040C00001230023DBB2FB60BB6893F84230DBB214
:1040D000222B08D1FB68002B05D0BB680022DA85B3
:1040E000B86800F035F9BB685B6C43F01002BB6840
:1040F0005A64B868FFF7FCFE00BF1037BD4680BDAC
:1041000080B586B000AFF860B9603B601346FB71C4
:104110003BE03B6AB3F1FF3F37D0FDF79FFB024620
:104120003B68D31A3A6A9A4202D33B6A002B01D108
:1041300003233AE0FB681B68DB6803F00403002BF1
:1041400023D0BB68802B20D0BB68402B1DD0FB68E0
:104150001B681B6803F00803082B16D100237B6142
:10416000FB681B681B687B61FB681B685B687B6185
:104170007B69F86800F0ECF8FB6808225A64FB6879
:10418000002283F8402001230FE0FB681B681A68B7
:10419000BB681340BA689A420CBF01230023DBB20C
:1041A0001A46FB799A42B4D0002318461837BD4608
:1041B00080BD000080B598B000AFF860B9601346CC
:1041C000FB80BA68FB689A62FB68FA889A85FB688C
:1041D00000225A64FB68222283F84220FB68DB6BD2
:1041E000444ADA63FB68DB6B434A1A64FB68DB6BA7
:1041F000424ADA64FB68DB6B00221A6507F10803A8
:10420000FB65FB68D86BFB681B6804331946FB6DC4
:104210001A68FB88FDF744FD0346002B08D0FB68B5
:1042200010225A64FB68202283F8422001235DE0BB
:1042300000233B61FB681B681B683B61FB681B68D4
:104240005B683B613B69FB681B69002B19D0FB680D
:104250001B680C333B643B6C53E8003FFB63FB6B18
:1042600043F48073BB65FB681B680C33BA6DFA645A
:10427000BB64B96CFA6C41E800237B647B6C002B57
:10428000E5D1FB681B681433FB62FB6A53E8003F0F
:10429000BB62BB6A43F001037B65FB681B68143398
:1042A0007A6DBA637B63796BBA6B41E800233B6339
:1042B0003B6B002BE5D1FB681B681433BB61BB690A
:1042C00053E8003F7B617B6943F040033B65FB683B
:1042D0001B6814333A6D7A623B62396A7A6A41E844
:1042E0000023FB61FB69002BE5D1002318466037F2
:1042F000BD4680BD053F0008314000086D40000804
:1043000080B489B000AF78607B681B680C33FB60B9
:10431000FB6853E8003FBB60BB6823F0C003FB6150
:104320007B681B680C33FA69BA617B617969BA6989
:1043300041E800233B613B69002BE5D17B682022EB
:1043400083F8412000BF2437BD465DF8047B7047E9
:1043500080B495B000AF78607B681B680C337B63DA
:104360007B6B53E8003F3B633B6B23F49073FB6430
:104370007B681B680C33FA6C3A64FB63F96B3A6C2C
:1043800041E80023BB63BB6B002BE5D17B681B6856
:1043900014333B623B6A53E8003FFB61FB6923F047
:1043A0000103BB647B681B681433BA6CFA62BB629E
:1043B000B96AFA6A41E800237B627B6A002BE5D187
:1043C0007B681B6B012B19D17B681B680C33FB606E
:1043D000FB6853E8003FBB60BB6823F010037B64BD
:1043E0007B681B680C337A6CBA617B617969BA6946
:1043F00041E800233B613B69002BE5D17B6820222B
:1044000083F842207B6800221A6300BF5437BD4600
:104410005DF8047B704780B584B000AF78607B683E
:104420009B6BFB60FB680022DA85F868FFF760FD94
:1044300000BF1037BD4680BD80B485B000AF786046
:104440007B6893F84130DBB2212B3ED17B689B68BF
:10445000B3F5805F14D17B681B69002B10D17B689A
:104460001B6AFB60FB681B881A467B681B68C2F3EB
:1044700008025A607B681B6A9A1C7B681A6208E013
:104480007B681B6A591C7A6811621A787B681B6802
:104490005A607B68DB8C9BB2013B9BB27A68194601
:1044A000D184002B0FD17B681B68DA687B681B689E
:1044B00022F08002DA607B681B68DA687B681B6820
:1044C00042F04002DA60002300E00223184614376D
:1044D000BD465DF8047B704780B582B000AF786060
:1044E0007B681B68DA687B681B6822F04002DA6030
:1044F0007B68202283F841207868FFF7DBFC0023EB
:1045000018460837BD4680BD80B58CB000AF7860D6
:104510000023FB620023BB627B6893F84230DBB26E
:10452000222B40F0AA807B689B68B3F5805F15D191
:104530007B681B69002B11D17B689B6ABB627B681F
:104540001B685B689BB2C3F308039AB2BB6A1A800C
:104550007B689B6A9A1C7B689A6224E07B689B6AF2
:10456000FB627B689B68B3F5805F07D07B689B68C4
:10457000002B0AD17B681B69002B06D17B681B6866
:104580005B68DAB2FB6A1A7008E07B681B685B68DC
:10459000DBB203F07F03DAB2FB6A1A707B689B6AB6
:1045A0005A1C7B689A627B68DB8D9BB2013B9BB295
:1045B0007A681946D185002B5DD17B681B68DA6863
:1045C0007B681B6822F02002DA607B681B68DA686F
:1045D0007B681B6822F48072DA607B681B685A690A
:1045E0007B681B6822F001025A617B68202283F8F5
:1045F00042207B6800225A637B681B6B012B35D1FC
:104600007B6800221A637B681B680C337B617B69C3
:1046100053E8003F3B613B6923F010037B627B68FA
:104620001B680C337A6A3A62FB61F9693A6A41E8BD
:104630000023BB61BB69002BE5D17B681B681B684D
:1046400003F01003102B0AD10023FB607B681B686A
:104650001B68FB607B681B685B68FB60FB687B68B2
:104660009B8D1946786800F093FB02E07868FFF7AD
:104670002BFC002302E0002300E002231846303721
:10468000BD4680BD2DE9B04FC0B000AFC7F8F40003
:10469000D7F8F4301B681B6923F44050D7F8F43086
:1046A000D968D7F8F4301A6840EA01031361D7F8E3
:1046B000F4309A68D7F8F4301B691A43D7F8F4300D
:1046C0005B691A43D7F8F430DB691343C7F8F83055
:1046D000D7F8F4301B68DB6823F4164121F00C0195
:1046E000D7F8F4301A68D7F8F8300B43D360D7F80E
:1046F000F4301B685B6923F44070D7F8F430996993
:10470000D7F8F4301A6840EA01035361D7F8F4305F
:104710001A688F4B9A4205D0D7F8F4301A688D4B3F
:104720009A4204D1FEF71EFFC7F8FC0003E0FEF733
:1047300005FFC7F8FC00D7F8F430DB69B3F5004F8C
:1047400040F00C81D7F8FC300022C7F8E830C7F8F9
:10475000EC20D7E93A4522462B469118B9655B41D2
:10476000FB65D7E91623214612EB0108294643EBE6
:1047700001094FF000024FF000034FEAC90343EA7A
:1047800058734FEAC80290469946234618EB030334
:10479000C7F8E0302B4649EB0303C7F8E430D7F8FD
:1047A000F4305B680022C7F8D830C7F8DC20D7E9BE
:1047B00036120B46DB183B65134642EB03037B6561
:1047C000D7E91423D7E93801FCF75EFA02460B4615
:1047D000614BA3FB02235B091C01D7F8FC300022CC
:1047E000C7F8D030C7F8D420D7E9348942464B46C1
:1047F0009118B9645B41FB64D7E91223414612EB7F
:10480000010A494643EB010B4FF000024FF0000351
:104810004FEACB0343EA5A734FEACA0292469B46D9
:1048200043461AEB0303C7F8C8304B464BEB030370
:10483000C7F8CC30D7F8F4305B680022C7F8C03036
:10484000C7F8C420D7E930120B46DB183B64134687
:1048500042EB03037B64D7E91023D7E93201FCF76D
:1048600013FA02460B4611463B4BA3FB01235B099F
:10487000642202FB03F3CB1ADB0003F13202364B56
:10488000A3FB02235B095B0003F4F8731C44D7F815
:10489000FC300022C7F8B830C7F8BC20D7E92E8911
:1048A00042464B469118B9635B41FB63D7E90E233F
:1048B00041465118396349464B417B634FF0000232
:1048C0004FF00003D7E90CAB5946CB00514643EA01
:1048D00051735146CA0010461946034642469B187A
:1048E000C7F8B0304B460A4642EB0303C7F8B43072
:1048F000D7F8F4305B680022C7F8A830C7F8AC20BE
:10490000D7E92A120B46DB18BB62134642EB0303BE
:10491000FB62D7E90A23D7E92C01FCF7B5F9024677
:104920000B460D4BA3FB02135B09642101FB03F350
:10493000D31ADB003233084AA2FB03235B0903F0DE
:104940000702D7F8F4301B6822449A6006E100BFE2
:1049500000100140001401401F85EB51D7F8FC30D6
:104960000022C7F8A030C7F8A420D7E9288942461A
:104970004B46911839625B417B62D7E90823414677
:104980005418494643EB01054FF000024FF0000375
:10499000EB0043EA5473E20014461D464346E31815
:1049A000C7F898304B4645EB0303C7F89C30D7F85F
:1049B000F4305B680022C7F89030C7F894204FF0BD
:1049C00000024FF00003D7E9244529468B00214619
:1049D00043EA917321468A00D7E92601FCF754F98E
:1049E00002460B46604BA3FB02235B091C01D7F870
:1049F000FC300022C7F88830C7F88C20D7E922891C
:104A000042464B469118B9615B41FB61D7E90623E9
:104A100041465118396149464B417B614FF00002D4
:104A20004FF00003D7E904AB5946CB00514643EAA7
:104A300051735146CA0010461946034642469B1818
:104A4000C7F880304B460A4642EB0303C7F8843070
:104A5000D7F8F4305B680022BB67FA674FF00002BA
:104A60004FF00003D7E91E8949468B00414643EACF
:104A7000917341468A00D7E92001FCF705F9024607
:104A80000B461146384BA3FB01235B09642202FB52
:104A900003F3CB1A1B013233334AA2FB03235B0916
:104AA00003F0F0031C44D7F8FC3000223B677A6720
:104AB000D7E91C8942464B469118B9605B41FB60BF
:104AC000D7E9022341465118396049464B417B6082
:104AD0004FF000024FF00003D7E900AB5946CB007E
:104AE000514643EA51735146CA00104619460346DF
:104AF00042469B18BB664B460A4642EB0303FB66E5
:104B0000D7F8F4305B6800223B667A664FF000020B
:104B10004FF00003D7E9188949468B00414643EA24
:104B2000917341468A00D7E91A01FCF7ADF80246B5
:104B30000B460D4BA3FB02135B09642101FB03F33E
:104B4000D31A1B013233084AA2FB03235B0903F08B
:104B50000F02D7F8F4301B6822449A6000BF07F5B3
:104B60008077BD46BDE8B08F1F85EB5180B483B020
:104B700000AF78607B68244A934201D200233CE076
:104B80007B68224A934201D2012336E07B68204AA7
:104B9000934201D2022330E07B681E4A934201D83F
:104BA00003232AE07B681C4A934201D8042324E0B3
:104BB0007B681A4A934201D805231EE07B68184A95
:104BC000934201D8062318E07B68164A934201D825
:104BD000072312E07B68144A934201D808230CE0B3
:104BE0007B68124A934201D8092306E07B68104A89
:104BF000934201D80A2300E00B2318460C37BD4628
:104C00005DF8047B704700BF00400008008000088A
:104C100000C00008FFFF0008FFFF0108FFFF0308B6
:104C2000FFFF0508FFFF0708FFFF0908FFFF0B084C
:104C3000FFFF0D0880B483B000AF78607B68002B65
:104C400008D07B68012B05D07B68022B02D07B68E3
:104C5000032B02D14FF480430CE07B68042B02D17C
:104C60004FF4803306E07B680B2B02D84FF40033FF
:104C700000E0002318460C37BD465DF8047B704702
:104C800080B58AB000AF78603960FDF7AFFB7B6814
:104C90007B627A683B6813443B620023BB6002235B
:104CA000BB6101237B6114E0786AFFF75FFF034675
:104CB0003B6107F11C0207F1080311461846FDF796
:104CC000F7FC3B691846FFF7B5FF02467B6A1344C1
:104CD0007B627A6A3B6A9A42E6D3FDF7A9FB00BF82
:104CE0002837BD4680BDB0B586B000AFF860B9606A
:104CF0007A60BB68002B2FD07B68002B2CD0FDF78F
:104D000075FB00237B611EE0FB681B78FF2B03D043
:104D1000FB680133FB6013E0BA687B6913441B78BE
:104D2000DBB200221C46154622462B46F9680020BD
:104D3000FDF70AFB0346002B0AD1FB680133FB6039
:104D40007B6901337B617A697B689A42DCD300E03E
:104D500000BFFDF76DFB00E000BF1837BD46B0BDDA
:104D600080B500AF40F2054206490748FEF79EFDB8
:104D7000064B1B681A68054B1B6822F008021A6074
:104D800000BF80BD12030020F8010020880200202F
:104D900080B582B000AF78600B467B807B681B6873
:104DA0000D4A934214D10D4A7B8853800B4B01224C
:104DB00083F8122540F2054209490A48FEF776FDBC
:104DC000094B1B681A68084B1B6822F008021A601E
:104DD00000BF0837BD4680BD001001400C03002015
:104DE00012030020F80100208802002080B582B064
:104DF00000AF154B1A68154B1340154A93421ED14C
:104E00001448FEF7D4FC1448FCF7A2FF2520FCF759
:104E10007EFE3A20FCF77BFE104B0B4A9A600A4B51
:104E20001B683B603B6883F3088800BF0C4B1B6822
:104E30007B607B680B4A13600A4B1B68984700BF76
:104E40000837BD4680BD00BF000002080000FE2FED
:104E500000000220F80100208802002000ED00E0A0
:104E6000040002082C09002080B584B000AF7860EF
:104E700039607B6807EE903AF8EE676A3B6807EEA8
:104E8000903AB8EE677AC6EE877A9FED0D7A67EEB4
:104E9000877AFDEEE77A17EE903AFB60094B1B68C4
:104EA000FA689A4208D03B687A68F968064801F0C7
:104EB000FFFA044AFB68136000BF1037BD4680BD8F
:104EC0000000C8420C000020FC9D000880B584B0A2
:104ED00000AF0346FB71FB79FB7307F10F0301225F
:104EE00019460848FEF72DFC00BF064B1B681B68DF
:104EF00003F04003402BF8D100BF00BF1037BD4680
:104F000080BD00BFF801002080B500AF864B93F84C
:104F10001035032B00F2008101A252F823F000BFEC
:104F2000314F0008994F000827500008F35000083F
:104F30007D4B93F81235DBB2012B25D17A4B5B8880
:104F400019467A4800F0D0F90346002B11D006200C
:104F5000FFF7BCFF744B012283F81025724BD3F886
:104F60000C3519467248FFF78BFE724801F008FBBA
:104F700006E01520FFF7AAFF6B4B032283F81025EC
:104F8000694B002283F812254320FFF79FFF4FF45F
:104F90007A70FCF76FFCC4E0634B93F81235DBB218
:104FA000012B40F0BB80604B5B8819465F4800F0E6
:104FB00081F90346002B1DD05B4B9B881A465A4B48
:104FC000D3F80C3519461046FFF74EFF0620FFF7C1
:104FD0007DFF554B9B881A46534BD3F80C359A42AC
:104FE0001CD3514B022283F810254F4B0022C3F8EB
:104FF000142513E01520FFF769FF4B4B93F8183683
:105000000133DAB2484B83F81826474B93F8183629
:10501000142B03D9444B032283F81025424B002262
:1050200083F812257AE0404B93F81235DBB2012B5E
:1050300076D13D4B93F81135022B34D0022B4CDC4A
:10504000002B02D0012B14D047E0374B9B79042B67
:1050500045D1354B5B88012B41D11520FFF736FF39
:10506000314B93F811350133DAB22F4B83F8112508
:1050700035E02D4B9B79042B33D12B4B5B88012BD7
:105080002FD10620FFF722FF0520FCF7F3FB43207A
:10509000FFF71CFF244B93F811350133DAB2224B92
:1050A00083F811251DE0204B5B8819461F4800F04E
:1050B000AFF90346002B16D00620FFF707FF4FF489
:1050C000C4620021184801F05BFB174B042283F8EF
:1050D0001025194801F054FA05E000BF04E000BFB4
:1050E00002E000BF00E000BF0F4B002283F8122552
:1050F00016E01820FFF7EAFE1820FFF7E7FE0A2067
:10510000FCF7B8FB4FF4C4620021074801F038FBFC
:105110000A4801F035FA04E000BF02E000BF00E0F9
:1051200000BF00BF80BD00BF0C03002012030020A1
:1051300000000208209E0008609E00088C9E000867
:1051400080B584B000AF78600B467B8013463B800F
:105150007B68002B04D03B881A1D7B889A4201DBB8
:1051600000239CE07B6801331A787B6802331B784C
:10517000DB43DBB29A4201D0002390E07B6803332B
:105180003A881146184600F0A5F903467B817A89D2
:105190003B88033379680B441B781B023988043140
:1051A0007868014409780B439A4201D0002376E0E5
:1051B0007B6801331A783C4B1A700023FB812EE088
:1051C000394BD3F81425384BD3F80C359A422BD2EF
:1051D000FB8903331A467B681A44334BD3F81435E2
:1051E000591C3148C0F81415DBB211782E4A13440B
:1051F0000A4683F818252C4BD3F81435DBB2002B64
:105200000AD1294BD3F81425284B13444FF480724C
:1052100027491846FFF767FDFB890133FB81FA89AF
:105220003B889A42CCD300E000BF1F4BD3F8142533
:105230001D4BD3F80C359A4229D11B4BD3F81435AA
:10524000DBB2002B23D0184BD3F814359BB2DBB262
:105250003B813B89BB8108E0BB89134A1344FF2291
:1052600083F81825BB890133BB81BB89FF2BF3D998
:105270000D4BD3F814253B89D31A03F1006303F5D2
:1052800000334FF480720A491846FFF72CFD064B95
:105290009A883B8813449AB2034B9A80012318469C
:1052A0001037BD4680BD00BF0C03002000FF010881
:1052B0002408002080B584B000AF78600B467B8066
:1052C0007B681B78012B01D1802301E04FF48063C0
:1052D000FB81FA897B8819467868FFF731FF03461E
:1052E00018461037BD4680BD80B584B000AF7860E9
:1052F0000B467B807B68002B02D07B88842B01D8F7
:1053000000237DE07B681B78012B09D17B6801338A
:105310001B78002B04D17B6802331B78FF2B01D054
:1053200000236DE07B6803338021184600F0D2F83B
:105330000346BB81BA897B6883331B781B0279687B
:10534000843109780B439A4201D0002358E00023AE
:10535000FB737B680333BB600CE0FB7BBA681A44C9
:10536000FB7B1178284A13440A4683F80B24FB7B05
:105370000133FB7397F90F30002B05DBFB7BBA6819
:1053800013441B78002BE8D1FB7B1F4A13440022F7
:1053900083F80B24FB7B0133FB730023BB730EE00C
:1053A000FB7B5A1CFA731A46BB681A44BB7B591C18
:1053B000B97319461278144B0B4483F88B2497F970
:1053C0000F30002B0BDBFB7BBA6813441B78202BC0
:1053D000E6D1FB7BBA6813441B78002BE0D1BB7B82
:1053E000094A1344002283F88B240A22002107482B
:1053F00000F026F903461A46034BC3F80C25012397
:1054000018461037BD4680BD0C03002097070020CA
:1054100080B485B000AF78600B467B807B68002B42
:1054200002D07B88842B01D800234DE07B681B7859
:10543000012B09D17B6801331B78002B04D17B68D9
:1054400002331B78FF2B01D000233DE07B68033340
:105450001B78002B18D07B6804331B78302B13D0BB
:105460007B6805331B78202B0ED07B6806331B78B6
:10547000302B09D07B6807331B78202B04D07B6846
:1054800008331B78302B01D101231DE00323FB815E
:105490000AE0FB897A6813441B78002B01D00023B3
:1054A00012E0FB890133FB81FB89822BF1D97B68F8
:1054B00083331B78002B04D17B6884331B78002B4B
:1054C00001D0002300E0012318461437BD465DF8E3
:1054D000047B704780B485B000AF78600B467B805A
:1054E0000023FB8124E07B685A1C7A601B781B0236
:1054F0001AB2B7F90E3053401BB2FB810023BB81B7
:1055000013E0B7F90E30002B09DAFB895B001BB200
:1055100083F4815383F001031BB2FB8102E0FB891A
:105520005B00FB81BB890133BB81BB89072BE8D9B9
:105530007B885A1E7A80002BD5D1FB8918461437F8
:10554000BD465DF8047B7047242B2DE9F047864665
:10555000904601D8012B06D101F064F916230360AF
:105560000020BDE8F08734480D462A4615F8014B67
:10557000065D16F00806F8D12D2C2DD12C780126C9
:10558000951C33F0100209D1302C2AD12A7802F070
:10559000DF02582A25D16C781023023506F1004C21
:1055A0000CF1FF3C0022BCFBF3F9104603FB19CAC7
:1055B000A4F13007092F1BD83C46A34227DD571C16
:1055C00007D0814520D301D1A2451DDB00FB03405C
:1055D000012215F8014BEBE72B2C04BF2C78951C0E
:1055E000CFE7002BDAD1302C0CBF08230A23D5E7F4
:1055F000A4F14107192F01D8373CDEE7A4F1610778
:10560000192F04D8573CD8E74FF0FF32E1E7531C7D
:1056100008D12223CEF800306046B8F1000FA0D0A8
:10562000691E06E006B14042B8F1000F99D0002A89
:10563000F6D1C8F8001094E7DD9E0008FFF784BF9C
:1056400013460A46014602480068FFF77DBF00BFC7
:105650001C0000202DE9FF4757EC106B002F0C4673
:1056600019463B46BBBF07F100431F4600232D23CD
:105670000B700D9BDDF830A0914623F02008BCBFD5
:1056800032461646B8F1460F05D0B8F1450F00D1A5
:105690000134022100E0032103AB019302AB00932C
:1056A00047EC106B5346224601F07AF9B8F1470FE8
:1056B000054619D119F0010F0ED000EB04090022A4
:1056C000002330463946FBF7FFF908B1CDF80C90BE
:1056D0003022039B4B451ED3039B0E9A5B1B28462F
:1056E000136004B0BDE8F087B8F1460F00EB040981
:1056F000E5D10378302B0AD1002200233046394609
:10570000FBF7E2F918B9C4F10104CAF80040DAF86D
:1057100000309944D3E7591C03911A70D9E7F7B5C3
:105720000029BABF49422D232B2309290270437057
:1057300029DD0DF107031D460A271A46B1FBF7F6CE
:1057400007FB1614303402F8014C0C46632C03F1AD
:10575000FF333146F1DC3031941E03F8011C411C4B
:105760002346AB420AD30DF109039B1AAC4288BF12
:10577000002302330344181A03B0F0BD13F8016B81
:1057800001F8016FEDE7302330318370C170031DE4
:10579000F1E700002DE9F04F8DB00C46DDF85880A0
:1057A00016461F46054600F0F3FF036804931846AB
:1057B000FAF75EFD00230A93D8F80030059007330E
:1057C00023F0070303F1080294F818A0D4F800B0FE
:1057D000C8F80020D3E9008929F000430793CDF8E9
:1057E0001880C4E91289DDE906019C4B4FF0FF32B5
:1057F000FBF79CF970BBDDE90601984B4FF0FF32D7
:10580000FBF776F930BB0022002340464946FBF700
:1058100065F910B12D2384F84330914A914BBAF1C8
:10582000470F94BF90469846032323612BF004034F
:1058300023604FF00009009733460BAA2146284603
:1058400000F0D2F9013040F08D804FF0FF300DB004
:10585000BDE8F08F42464B4640464946FBF766F9A5
:1058600040B14B46002BBCBF2D2384F843307E4A09
:105870007E4BD4E763680AF0DF0206925A1C3BD1E4
:10588000062363604BF480620023226003930AAB1B
:10589000CDE901A309AB0093616849EC108B0DF1D0
:1058A00023032846FFF7D6FE069B0999472B80461F
:1058B00029D1C81C02DB6368994241DDAAF1020AC2
:1058C0005FFA8AFA0139524604F150000991FFF754
:1058D00026FF0A9A1318012A8146236102DC2268F6
:1058E000D20701D5013323619DF82330002BA2D0CC
:1058F0002D2384F843309EE7069A472AC2D1002B15
:10590000C0D10123BDE7BAF1650FDBD9BAF1660F4B
:1059100018D1002963680BDD216113B92268D00713
:1059200002D501330B442361A1654FF00009DBE789
:1059300013B92268D20701D50233F4E70123F2E755
:105940004FF0670A0A9B994205DB23682161D8075B
:10595000EAD54B1CE7E70029D4BFC1F102020122BE
:105960001344E0E723685A0507D4236942463146C9
:105970002846B84701302BD167E7BAF1650F40F2EE
:10598000DD80D4E9120100220023FBF79DF80028F6
:1059900033D0374A012331462846B84701303FF417
:1059A00054AFDDE90938434502DB2368D8070FD53A
:1059B000DDE9042331462846B84701303FF445AFBE
:1059C0004FF0000908F1FF3804F11A0AC84509DC54
:1059D00023689B0700F10381E0680B9B9842B8BFE6
:1059E000184634E70123524631462846B84701306D
:1059F0003FF42BAF09F10109E8E7099B002B39DCE3
:105A00001B4A012331462846B84701303FF41DAFF9
:105A1000DDE9093959EA030302D12368D907D7D54B
:105A2000DDE9042331462846B84701303FF40DAF85
:105A30004FF0000A04F11A0B099B5B42534501DC4D
:105A40004B4693E701235A4631462846B847013072
:105A50003FF4FBAE0AF1010AEEE700BFFFFFEF7F64
:105A6000DD9F0008E19F0008E59F0008E99F00080E
:105A7000ED9F0008A36DDDF828A05345A8BF53464D
:105A8000002B994636DC4FF0000B29EAE97904F146
:105A90001A02A36D0693A3EB09035B4531DC099B56
:105AA0009A453ADC2368DA0737D4099BAAEB030945
:105AB000069BAAEB03039945A8BF9946B9F1000FCD
:105AC00033DC4FF0000829EAE97904F11A0B099B4D
:105AD000AAEB0303A3EB090343457FF779AF012347
